{
    "_format": "hh-sol-artifact-1",
    "contractName": "PhaseableSale",
    "sourceName": "contracts/PhaseableSale.sol",
    "abi": [
        {
            "inputs": [
                {
                    "internalType": "address",
                    "name": "_token",
                    "type": "address"
                }
            ],
            "stateMutability": "nonpayable",
            "type": "constructor"
        },
        {
            "anonymous": false,
            "inputs": [
                {
                    "indexed": true,
                    "internalType": "address",
                    "name": "previousOwner",
                    "type": "address"
                },
                {
                    "indexed": true,
                    "internalType": "address",
                    "name": "newOwner",
                    "type": "address"
                }
            ],
            "name": "OwnershipTransferred",
            "type": "event"
        },
        {
            "inputs": [],
            "name": "closePhase",
            "outputs": [],
            "stateMutability": "nonpayable",
            "type": "function"
        },
        {
            "inputs": [
                {
                    "internalType": "uint256",
                    "name": "priceUsd",
                    "type": "uint256"
                },
                {
                    "internalType": "uint256",
                    "name": "amount",
                    "type": "uint256"
                }
            ],
            "name": "createPhase",
            "outputs": [],
            "stateMutability": "nonpayable",
            "type": "function"
        },
        {
            "inputs": [],
            "name": "owner",
            "outputs": [
                {
                    "internalType": "address",
                    "name": "",
                    "type": "address"
                }
            ],
            "stateMutability": "view",
            "type": "function"
        },
        {
            "inputs": [],
            "name": "phaseCounter",
            "outputs": [
                {
                    "internalType": "uint256",
                    "name": "",
                    "type": "uint256"
                }
            ],
            "stateMutability": "view",
            "type": "function"
        },
        {
            "inputs": [
                {
                    "internalType": "uint256",
                    "name": "id",
                    "type": "uint256"
                }
            ],
            "name": "phaseInfo",
            "outputs": [
                {
                    "components": [
                        {
                            "internalType": "uint256",
                            "name": "startTimestamp",
                            "type": "uint256"
                        },
                        {
                            "internalType": "uint256",
                            "name": "endTimestamp",
                            "type": "uint256"
                        },
                        {
                            "internalType": "uint256",
                            "name": "priceUsd",
                            "type": "uint256"
                        },
                        {
                            "internalType": "uint256",
                            "name": "amountTotal",
                            "type": "uint256"
                        },
                        {
                            "internalType": "uint256",
                            "name": "amountSold",
                            "type": "uint256"
                        },
                        {
                            "internalType": "bool",
                            "name": "closed",
                            "type": "bool"
                        }
                    ],
                    "internalType": "struct PhaseableSale.Phase",
                    "name": "",
                    "type": "tuple"
                }
            ],
            "stateMutability": "view",
            "type": "function"
        },
        {
            "inputs": [
                {
                    "internalType": "uint256",
                    "name": "invest",
                    "type": "uint256"
                }
            ],
            "name": "purchaseUsdc",
            "outputs": [],
            "stateMutability": "nonpayable",
            "type": "function"
        },
        {
            "inputs": [
                {
                    "internalType": "uint256",
                    "name": "invest",
                    "type": "uint256"
                }
            ],
            "name": "purchaseUsdt",
            "outputs": [],
            "stateMutability": "nonpayable",
            "type": "function"
        },
        {
            "inputs": [],
            "name": "renounceOwnership",
            "outputs": [],
            "stateMutability": "nonpayable",
            "type": "function"
        },
        {
            "inputs": [
                {
                    "internalType": "address",
                    "name": "newOwner",
                    "type": "address"
                }
            ],
            "name": "transferOwnership",
            "outputs": [],
            "stateMutability": "nonpayable",
            "type": "function"
        },
        {
            "inputs": [
                {
                    "internalType": "uint256",
                    "name": "amount",
                    "type": "uint256"
                }
            ],
            "name": "withdrawTokens",
            "outputs": [],
            "stateMutability": "nonpayable",
            "type": "function"
        },
        {
            "stateMutability": "payable",
            "type": "receive"
        }
    ],
    "bytecode": "0x60a0604052600060025534801561001557600080fd5b5060405161122d38038061122d833981016040819052610034916100a2565b61003d33610052565b600180556001600160a01b03166080526100d2565b600080546001600160a01b038381166001600160a01b0319831681178455604051919092169283917f8be0079c531659141344cd1fd0a4f28419497f9722a3daafe3b4186f6b6457e09190a35050565b6000602082840312156100b457600080fd5b81516001600160a01b03811681146100cb57600080fd5b9392505050565b6080516111326100fb60003960008181610375015281816105240152610ede01526111326000f3fe6080604052600436106100b55760003560e01c80639534f9a611610069578063d51064901161004e578063d510649014610216578063d55feac01461023a578063f2fde38b1461025a57600080fd5b80639534f9a6146101e15780639ed22bf41461020157600080fd5b8063715018a61161009a578063715018a6146101845780638da5cb5b1461019957806390f86e0c146101c157600080fd5b80631a4b0a25146100ed578063315a095d1461016457600080fd5b366100e85760405133903480156108fc02916000818181858888f193505050501580156100e6573d6000803e3d6000fd5b005b600080fd5b3480156100f957600080fd5b5061010d610108366004610fdb565b61027a565b60405161015b9190600060c082019050825182526020830151602083015260408301516040830152606083015160608301526080830151608083015260a0830151151560a083015292915050565b60405180910390f35b34801561017057600080fd5b506100e661017f366004610fdb565b61036b565b34801561019057600080fd5b506100e6610441565b3480156101a557600080fd5b506000546040516001600160a01b03909116815260200161015b565b3480156101cd57600080fd5b506100e66101dc366004610ff4565b610455565b3480156101ed57600080fd5b506100e66101fc366004610fdb565b61069f565b34801561020d57600080fd5b506100e6610899565b34801561022257600080fd5b5061022c60025481565b60405190815260200161015b565b34801561024657600080fd5b506100e6610255366004610fdb565b610a95565b34801561026657600080fd5b506100e6610275366004611016565b610be8565b6102b56040518060c0016040528060008152602001600081526020016000815260200160008152602001600081526020016000151581525090565b8160025481111561030d5760405162461bcd60e51b815260206004820152601b60248201527f53616c653a204e6f7420612076616c696420706861737365206964000000000060448201526064015b60405180910390fd5b5050600090815260036020818152604092839020835160c081018552815481526001820154928101929092526002810154938201939093529082015460608201526004820154608082015260059091015460ff16151560a082015290565b610373610c75565b7f00000000000000000000000000000000000000000000000000000000000000006001600160a01b031663a9059cbb6103b46000546001600160a01b031690565b6040517fffffffff0000000000000000000000000000000000000000000000000000000060e084901b1681526001600160a01b039091166004820152602481018490526044016020604051808303816000875af1158015610419573d6000803e3d6000fd5b505050506040513d601f19601f8201168201806040525081019061043d9190611046565b5050565b610449610c75565b6104536000610ccf565b565b61045d610c75565b600254156104f45760006104796001600254610108919061107e565b90508060a001516104f25760405162461bcd60e51b815260206004820152602260248201527f53616c653a2043757272656e74207068617365206973206e6f7420636c6f736560448201527f642e0000000000000000000000000000000000000000000000000000000000006064820152608401610304565b505b6040517f70a0823100000000000000000000000000000000000000000000000000000000815230600482015281907f00000000000000000000000000000000000000000000000000000000000000006001600160a01b0316906370a0823190602401602060405180830381865afa158015610573573d6000803e3d6000fd5b505050506040513d601f19601f820116820180604052508101906105979190611097565b101561060b5760405162461bcd60e51b815260206004820152602f60248201527f53616c653a2053616c6520636f6e747261637420646f6573206e6f74206f776e60448201527f20656e6f75676820746f6b656e732e00000000000000000000000000000000006064820152608401610304565b6040805160c08101825242815260006020808301828152838501878152606085018781526080860185815260a08701868152600280548852600396879052989096208751815593516001808601919091559251848901559051938301939093559151600482015591516005909201805460ff1916921515929092179091559154909161069791906110b0565b600255505050565b6106a7610d37565b6000600254116106f95760405162461bcd60e51b815260206004820181905260248201527f53616c653a204e6f20706861736520686173206265656e20637265617465642e6044820152606401610304565b600060036000600160025461070e919061107e565b81526020808201929092526040908101600020815160c0810183528154815260018201549381019390935260028101549183019190915260038101546060830152600481015460808301526005015460ff1615801560a08301529091506107c55760405162461bcd60e51b815260206004820152602560248201527f53616c653a204c617465737420706861736520697320616c726561647920636c60448201526437b9b2b21760d91b6064820152608401610304565b73b97ef9ef8734c71904d8002f8b6bc66dd9c48a6e6323b872dd336107f26000546001600160a01b031690565b6040517fffffffff0000000000000000000000000000000000000000000000000000000060e085901b1681526001600160a01b03928316600482015291166024820152604481018590526064016020604051808303816000875af115801561085e573d6000803e3d6000fd5b505050506040513d601f19601f820116820180604052508101906108829190611046565b5061088c82610d90565b5061089660018055565b50565b6108a1610c75565b6000600254116108f35760405162461bcd60e51b815260206004820181905260248201527f53616c653a204e6f20706861736520686173206265656e20637265617465642e6044820152606401610304565b6000600360006001600254610908919061107e565b81526020808201929092526040908101600020815160c0810183528154815260018201549381019390935260028101549183019190915260038101546060830152600481015460808301526005015460ff1615801560a08301529091506109bf5760405162461bcd60e51b815260206004820152602560248201527f53616c653a204c617465737420706861736520697320616c726561647920636c60448201526437b9b2b21760d91b6064820152608401610304565b60006003600060016002546109d4919061107e565b815260208082019290925260409081016000908120825160c0810184528154815260028083015494820194909452600380830154606083015260049092015460808201524294810194909452600160a08501819052925493945084939092610a3b9161107e565b81526020808201929092526040908101600020835181559183015160018301558201516002820155606082015160038201556080820151600482015560a0909101516005909101805460ff19169115159190911790555050565b610a9d610d37565b600060025411610aef5760405162461bcd60e51b815260206004820181905260248201527f53616c653a204e6f20706861736520686173206265656e20637265617465642e6044820152606401610304565b6000600360006001600254610b04919061107e565b81526020808201929092526040908101600020815160c0810183528154815260018201549381019390935260028101549183019190915260038101546060830152600481015460808301526005015460ff1615801560a0830152909150610bbb5760405162461bcd60e51b815260206004820152602560248201527f53616c653a204c617465737420706861736520697320616c726561647920636c60448201526437b9b2b21760d91b6064820152608401610304565b739702230a8ea53601f5cd2dc00fdbc13d4df4a8c76323b872dd336107f26000546001600160a01b031690565b610bf0610c75565b6001600160a01b038116610c6c5760405162461bcd60e51b815260206004820152602660248201527f4f776e61626c653a206e6577206f776e657220697320746865207a65726f206160448201527f64647265737300000000000000000000000000000000000000000000000000006064820152608401610304565b61089681610ccf565b6000546001600160a01b031633146104535760405162461bcd60e51b815260206004820181905260248201527f4f776e61626c653a2063616c6c6572206973206e6f7420746865206f776e65726044820152606401610304565b600080546001600160a01b038381167fffffffffffffffffffffffff0000000000000000000000000000000000000000831681178455604051919092169283917f8be0079c531659141344cd1fd0a4f28419497f9722a3daafe3b4186f6b6457e09190a35050565b600260015403610d895760405162461bcd60e51b815260206004820152601f60248201527f5265656e7472616e637947756172643a207265656e7472616e742063616c6c006044820152606401610304565b6002600155565b6000600360006001600254610da5919061107e565b815260208082019290925260409081016000908120825160c08101845281548152600182015494810194909452600281015492840183905260038101546060850152600481015460808501526005015460ff16151560a0840152919250610e0c90846110c3565b610e1e90670de0b6b3a76400006110e5565b905081608001518260600151610e34919061107e565b811115610ea95760405162461bcd60e51b815260206004820152602b60248201527f53616c653a20507572636861736520616d6f756e74206578636565647320706860448201527f61736520737570706c792e0000000000000000000000000000000000000000006064820152608401610304565b6040517fa9059cbb000000000000000000000000000000000000000000000000000000008152336004820152602481018290527f00000000000000000000000000000000000000000000000000000000000000006001600160a01b03169063a9059cbb906044016020604051808303816000875af1158015610f2f573d6000803e3d6000fd5b505050506040513d601f19601f82011682018060405250810190610f539190611046565b50808260800151610f6491906110b0565b60808301526002548290600390600090610f809060019061107e565b81526020808201929092526040908101600020835181559183015160018301558201516002820155606082015160038201556080820151600482015560a0909101516005909101805460ff1916911515919091179055505050565b600060208284031215610fed57600080fd5b5035919050565b6000806040838503121561100757600080fd5b50508035926020909101359150565b60006020828403121561102857600080fd5b81356001600160a01b038116811461103f57600080fd5b9392505050565b60006020828403121561105857600080fd5b8151801515811461103f57600080fd5b634e487b7160e01b600052601160045260246000fd5b8181038181111561109157611091611068565b92915050565b6000602082840312156110a957600080fd5b5051919050565b8082018082111561109157611091611068565b6000826110e057634e487b7160e01b600052601260045260246000fd5b500490565b80820281158282048414176110915761109161106856fea2646970667358221220e675e871aa748ce63977685484bb564d3876736729c593528bc7d3d20479f4d664736f6c63430008110033",
    "linkReferences": {},
    "deployedLinkReferences": {}
}